:100000000C945D000C9474060C944D060C948500C1
:100010000C9485000C9485000C9485000C9485004C
:100020000C9485000C9485000C9485000C9485003C
:100030000C9485000C9485000C9485000C9485002C
:100040000C9403060C9485000C94D1050C94AB051C
:100050000C9485000C9485000C9485000C9485000C
:100060000C9485000C9485000000000024002700FB
:100070002A0000000000250028002B0004040404CE
:100080000404040402020202020203030303030342
:10009000010204081020408001020408102001021F
:1000A00004081020000000080002010000030407FB
:1000B00000000000000000009B0611241FBECFEFCF
:1000C000D8E0DEBFCDBF11E0A0E0B1E0E6EDF7E1A2
:1000D00002C005900D92AA33B107D9F722E0AAE336
:1000E000B1E001C01D92A73CB207E1F710E0CDE5F9
:1000F000D0E004C02197FE010E94E30BCC35D1076C
:10010000C9F70E9439080C94E90B0C940000AF92D7
:10011000BF92CF92DF92EF92FF920F931F93CF93F4
:10012000DF936C017B018B01040F151FEB015E0156
:10013000AE18BF08C017D10759F06991D601ED91EB
:10014000FC910190F081E02DC6010995892B79F78A
:10015000C501DF91CF911F910F91FF90EF90DF903C
:10016000CF90BF90AF900895FC01538D448D252F03
:1001700030E0842F90E0821B930B541710F0CF9641
:10018000089501970895FC01918D828D981761F073
:10019000A28DAE0FBF2FB11D5D968C91928D9F5F8A
:1001A0009F73928F90E008958FEF9FEF0895FC0169
:1001B000918D828D981731F0828DE80FF11D858D1C
:1001C00090E008958FEF9FEF0895FC01918D228DAF
:1001D000892F90E0805C9F4F821B91098F73992734
:1001E000089583E491E00E94E50021E0892B09F461
:1001F00020E0822F089580E090E0892B29F00E9472
:10020000F10081110C9400000895FC01A48DA80F49
:10021000B92FB11DA35ABF4F2C91848D90E0019648
:100220008F739927848FA689B7892C93A089B18968
:100230008C91837080648C93938D848D981306C009
:100240000288F389E02D80818F7D80830895EF926D
:10025000FF920F931F93CF93DF93EC0181E0888F80
:100260009B8D8C8D98131AC0E889F989808185FF50
:1002700015C09FB7F894EE89FF896083E889F989F2
:1002800080818370806480839FBF81E090E0DF91F4
:10029000CF911F910F91FF90EF900895F62E0B8D47
:1002A00010E00F5F1F4F0F731127E02E8C8D8E1102
:1002B0000CC00FB607FCFACFE889F989808185FF69
:1002C000F5CFCE010E940501F1CFEB8DEC0FFD2F94
:1002D000F11DE35AFF4FF0829FB7F8940B8FEA8924
:1002E000FB8980818062CFCFCF93DF93EC01888D33
:1002F0008823B9F0AA89BB89E889F9898C9185FDA1
:1003000003C0808186FD0DC00FB607FCF7CF8C912E
:1003100085FFF2CF808185FFEDCFCE010E940501E0
:10032000E9CFDF91CF91089590E0FC01EC55FF4FAC
:100330002491FC01E057FF4F3491FC01E458FF4F3A
:10034000E491EE23C9F0222339F0233001F1A8F41F
:10035000213019F1223029F1F0E0EE0FFF1FEE58A5
:10036000FF4FA591B4918FB7F894EC91611126C01D
:1003700030953E233C938FBF08952730A9F0283055
:10038000C9F0243049F7809180008F7D03C08091AF
:1003900080008F7780938000DFCF84B58F7784BD16
:1003A000DBCF84B58F7DFBCF8091B0008F778093BA
:1003B000B000D2CF8091B0008F7DF9CF3E2BDACF45
:1003C000CF93DF9390E0FC01E057FF4F24918458D6
:1003D0009F4FFC0184918823D1F090E0880F991FF2
:1003E000FC01E859FF4FA591B491FC01EE58FF4F75
:1003F000C591D491623071F49FB7F8943C91822FEB
:10040000809583238C93E8812E2B28839FBFDF91D7
:10041000CF9108958FB7F894EC912E2B2C938FBF2A
:10042000F6CF0F93CF93DF93EC01862FEAE1F1E053
:10043000F983E8836A837B835D834C833F832E83C8
:1004400023E030E03987288761E00E94E00161E025
:100450008C810E94E00161E08E810E94E0018FEFBB
:1004600090E09B878A8784E291E0998388831C8649
:100470001D861E861F86188A198A1A8A1B8A81E0A1
:1004800090E0A0E0B0E08C8B9D8BAE8BBF8B188E84
:10049000198E1A8E1B8E1C8E1D8E1E8E1F8E2FB7D0
:1004A000F89480913F0190914001A0914101B09159
:1004B00042012FBF8CA39DA3AEA3BFA380E090E019
:1004C000A2E8B2E488A799A7AAA7BBA784E190E015
:1004D0009DA78CA71EA618AA1FA61AAA19AA1C8631
:1004E0001D861E861F8662E0802FDF91CF910F91BF
:1004F0000C94E0011F93CF93DF93182FEB0161E081
:100500000E94E001209739F460E0812FDF91CF91C4
:100510001F910C949401CF3FD10511F461E0F5CF08
:10052000E12FF0E0EC55FF4FE491E33031F140F47E
:10053000E130B1F0E230E1F0C038D1057CF7E4CF32
:10054000E73029F1E83059F1E430B1F780918000CB
:10055000806280938000D0938B00C0938A0004C097
:1005600084B5806884BDC7BDDF91CF911F91089588
:1005700084B5806284BDC8BDF7CF8091800080685B
:1005800080938000D0938900C0938800EDCF809144
:10059000B00080688093B000C093B300E5CF809135
:1005A000B00080628093B000C093B400DDCF3FB74D
:1005B000F89480913B0190913C01A0913D01B09154
:1005C0003E0126B5A89B05C02F3F19F00196A11D3D
:1005D000B11D3FBFBA2FA92F982F8827BC01CD018D
:1005E000620F711D811D911D42E0660F771F881FEC
:1005F000991F4A95D1F708950895E1E6F2E08485C0
:100600009585A685B7850196A11DB11D848795871F
:10061000A687B7870895E4E9F2E084859585A685E5
:10062000B7850196A11DB11D84879587A687B787D9
:1006300008954F925F926F927F928F929F92AF92A6
:10064000BF92CF92DF92EF92FF92CF93DF9300D0D1
:1006500000D000D0CDB7DEB79E838D838FB7F894DE
:10066000C0903F01D0904001E0904101F0904201E4
:100670008FBFAD81BE819096CD92DD92ED92FC92BE
:1006800093971C968D909D90AD90BC901F97FD0107
:10069000808E918EA28EB38E84A195A1A6A1B7A1C2
:1006A000892B8A2B8B2B21F4C4A2D5A2E6A2F7A218
:1006B000ED81FE8184A195A1A6A1B7A1A701960114
:1006C000281B390B4A0B5B0B29833A834B835C83D2
:1006D000283C31054105510508F44BC081149104B3
:1006E000A104B10409F445C084899589A689B78914
:1006F000A5019401281B390B4A0B5B0BCA01B901F8
:100700000E94790A2B013C01AD81BE819C966D91BE
:100710007C91072E000C880B990B0E947B0A9B0191
:10072000AC01C301B2010E94D8092B013C0160E673
:100730007AEE80E090E029813A814B815C810E94D1
:10074000C40BCA01B9010E947B0A9B01AC01C30121
:10075000B2010E94300BED81FE81648F758F868F10
:10076000978FC4A2D5A2E6A2F7A2848A958AA68A08
:10077000B78A26960FB6F894DEBF0FBECDBFDF91C5
:10078000CF91FF90EF90DF90CF90BF90AF909F9070
:100790008F907F906F905F904F900895FC016F3F16
:1007A000710509F060F473876287808591850297EF
:1007B000029740F06285738586810C947A021386D5
:1007C0001286F3CF0895CF93DF93FC012085318506
:1007D00021303105A1F0EC0181E090E09187808724
:1007E0006285738586810E947A0260E08A810E9418
:1007F000940161E08C81DF91CF910C949401DF91A1
:10080000CF910895CF93DF93FC0120853185232B71
:1008100091F0EC01118610866285738586810E94B5
:100820007A0261E08A810E94940160E08C81DF910C
:10083000CF910C949401DF91CF910895CF93DF93E2
:10084000FC01208531852130310599F0EC0181E0F2
:1008500090E09187808761E086810E94940161E049
:100860008C810E94940160E08A81DF91CF910C9489
:100870009401DF91CF910895CF93DF93FC01208500
:100880003185232B89F0EC011186108661E0868189
:100890000E94940160E08C810E94940161E08A8151
:1008A000DF91CF910C949401DF91CF910895CF9374
:1008B000DF93FC01208531852330310599F0EC016F
:1008C00083E090E09187808760E086810E949401B8
:1008D00060E08C810E94940160E08A81DF91CF9179
:1008E0000C949401DF91CF910895CF93DF93EC01A5
:1008F0000E9457041EA6DF91CF910895FC0101903C
:100900000020E9F73197AF01481B590BBC0183E484
:1009100091E00C9487008F929F92AF92BF920F93B9
:100920001F93CF93DF93CDB7DEB7A1970FB6F8949F
:10093000DEBF0FBECDBF19A2423008F44AE08E01DF
:100940000F5D1F4F842E912CB12CA12CA501940179
:100950000E94A20BE62FB901CA01EA30F4F4E05D6F
:10096000D801EE938D01232B242B252B79F790E0D2
:1009700080E0109719F0CD010E947E04A1960FB679
:10098000F894DEBF0FBECDBFDF91CF911F910F91C5
:10099000BF90AF909F908F900895E95CE1CF4F9208
:1009A0005F926F927F928F929F92AF92BF92CF92FF
:1009B000DF92EF92FF920F931F93CF936B017C0115
:1009C000742EAC019B010E949D0B882399F08AE252
:1009D00091E0CF911F910F91FF90EF90DF90CF901A
:1009E000BF90AF909F908F907F906F905F904F904F
:1009F0000C947E0446015701E894B7F82FEF3FEFBF
:100A00004FE75FE7C501B4010E949D0B81110DC046
:100A10002FEF3FEF4FE75FE7C501B4010E94D30915
:100A200018161CF48EE291E0D4CF2FEF3FEF4FE782
:100A30005FE4C701B6010E942B0B18161CF482E379
:100A400091E0C7CF2FEF3FEF4FE75FECC701B60153
:100A50000E94D30987FDF3CF20E030E0A901C70150
:100A6000B6010E94D30910E000E087FF0AC06DE2E2
:100A700083E491E00E9427018C01F7FAF094F7F8E3
:100A8000F094C0E060E070E080E09FE37C1641F00D
:100A900020E030E040E251E40E94D809CF5FF6CF79
:100AA000A70196010E9467092B013C010E944A0A96
:100AB0004B015C014AE00E948B047C01E00EF11EB8
:100AC000CC23C1F1C501B4010E94790A9B01AC019C
:100AD000C301B2010E9466094B015C016EE283E42E
:100AE00091E00E942701E80EF91EC15018F120E0A4
:100AF00030E040E251E4C501B4010E94300B2B010B
:100B00003C010E944A0A4B01B12CA12C4AE0C501CC
:100B1000B4010E948B04E80EF91EC501B4010E94C5
:100B2000790A9B01AC01C301B2010E9466094B0125
:100B30005C01DBCFC701CF911F910F91FF90EF9028
:100B4000DF90CF90BF90AF909F908F907F906F90ED
:100B50005F904F9008951F920F920FB60F9211243D
:100B60002F933F934F935F936F937F938F939F93B5
:100B7000AF93BF93EF93FF9383E491E00E9405014D
:100B8000FF91EF91BF91AF919F918F917F916F9165
:100B90005F914F913F912F910F900FBE0F901F903B
:100BA00018951F920F920FB60F9211242F938F93C7
:100BB0009F93EF93FF93E0915301F0915401808153
:100BC000E0915901F0915A0182FD1BC09081809102
:100BD0005C018F5F8F7320915D01821741F0E0917E
:100BE0005C01F0E0ED5BFE4F958F80935C01FF911F
:100BF000EF919F918F912F910F900FBE0F901F90AB
:100C000018958081F4CF1F920F920FB60F92112486
:100C10002F933F938F939F93AF93BF9380913F0107
:100C200090914001A0914101B091420130913A016F
:100C300023E0230F2D3758F50196A11DB11D2093F8
:100C40003A0180933F0190934001A0934101B093FA
:100C5000420180913B0190913C01A0913D01B091F6
:100C60003E010196A11DB11D80933B0190933C0173
:100C7000A0933D01B0933E01BF91AF919F918F91A1
:100C80003F912F910F900FBE0F901F90189526E85F
:100C9000230F0296A11DB11DD2CF1F920F920FB646
:100CA0000F9211242F933F934F935F936F937F93F2
:100CB0008F939F93AF93BF93EF93FF93E0910201C4
:100CC000F09103010995FF91EF91BF91AF919F9131
:100CD0008F917F916F915F914F913F912F910F90E5
:100CE0000FBE0F901F9018951F920F920FB60F9284
:100CF00011242F933F934F935F936F937F938F9321
:100D00009F93AF93BF93EF93FF93E0910001F09116
:100D100001010995FF91EF91BF91AF919F918F9143
:100D20007F916F915F914F913F912F910F900FBEE7
:100D30000F901F9018950F931F93CF93DF93E3E4C9
:100D4000F1E01382128288EE93E0A0E0B0E08483A9
:100D50009583A683B78388E091E09183808385ECB7
:100D600090E09587848784EC90E09787868780EC75
:100D700090E0918B808B81EC90E0938B828B82EC66
:100D800090E0958B848B86EC90E0978B868B118E10
:100D9000128E138E148E02E010E026E030E04CE05C
:100DA00050E06BE070E084E992E00E94110203E001
:100DB00010E025E030E04AE050E069E070E081E6D4
:100DC00092E00E94110262E087E00E94E00187E069
:100DD00090E09093600280935F0262E088E00E945E
:100DE000E00188E090E090935E0280935D02C0EEA7
:100DF000D1E023E030E03983288322ED30E03B83EB
:100E00002A833D832C83E4E9F2E022813381398710
:100E10002887248135813B872A87268137813D8732
:100E20002C87208531853F872E8722853385398B16
:100E3000288B24E231E03F832E83448555856685E7
:100E400077854A8B5B8B6C8B7D8B4089518962895E
:100E500073894E8B5F8B688F798F4489558966893A
:100E600077894A8F5B8F6C8F7D8F408D518D628D1E
:100E7000738D4E8F5F8F68A379A3448D558D668DDA
:100E8000778D4AA35BA36CA37DA340A151A162A16E
:100E900073A14EA35FA368A779A744A155A166A13A
:100EA00077A14AA75BA76CA77DA740A551A562A51E
:100EB00073A54EA75FA768AB79AB44A555A55BABFF
:100EC0004AAB46A54CAB47A550A95EAB4DAB41A97B
:100ED00052A958AF4FABE1E6F2E0428153815CAFDB
:100EE0004BAF448155815EAF4DAF468157815093E2
:100EF000200240931F024085518550932202409367
:100F000021024285538550932402409323023AAF35
:100F100029AF448555856685778540932502509392
:100F200026026093270270932802408951896289C2
:100F300073894093290250932A0260932B02709385
:100F40002C02448955896689778940932D025093F4
:100F50002E0260932F0270933002408D518D628D6E
:100F6000738D409331025093320260933302709339
:100F70003402448D558D668D778D409335025093A4
:100F80003602609337027093380240A151A162A1EA
:100F900073A14093390250933A0260933B027093DD
:100FA0003C0244A155A166A177A140933D02509314
:100FB0003E0260933F027093400240A551A562A596
:100FC00073A5409341025093420260934302709391
:100FD000440224A535A5309346022093450226A558
:100FE0002093470227A530A9309349022093480255
:100FF00021A932A930934B0220934A0220915F022B
:101000003091600230934D0220934C0290934F0236
:1010100080934E0281E08093500210925102109210
:1010200052021092530210925402109255021092E2
:10103000560210925702109258028AE090E0909364
:101040005A028093590285E090E090935C0280936D
:101050005B0262ED70E086EE91E00E94CE036C814F
:101060007D8189E192E0DF91CF911F910F910C94E6
:10107000CE03789484B5826084BD84B5816084BDDC
:1010800085B5826085BD85B5816085BD80916E0026
:10109000816080936E001092810080918100826057
:1010A0008093810080918100816080938100809194
:1010B00080008160809380008091B1008460809383
:1010C000B1008091B00081608093B00080917A007F
:1010D000846080937A0080917A00826080937A00A5
:1010E00080917A00816080937A0080917A00806894
:1010F00080937A001092C100E0915301F091540165
:1011000082E08083E0914F01F09150011082E091E4
:101110005101F091520180E1808310925B01E091D6
:101120005701F091580186E08083E0915501F091DC
:101130005601808180618083E0915501F0915601D4
:10114000808188608083E0915501F0915601808113
:1011500080688083E0915501F091560180818F7DF8
:1011600080838BE093E09093010180930001809154
:1011700069008C7F826080936900E89A8DEF92E02D
:10118000909303018093020180916900837F8860BE
:1011900080936900E99AC0E0D0E011E081E692E036
:1011A0000E94020481E692E00E94190360917D0290
:1011B00070917E0280917F029091800242E00E94B5
:1011C000CF0486E391E00E947E042091500280913A
:1011D000E0019091E101222309F457C0009709F042
:1011E00054C086EE91E00E9419036091350270911F
:1011F0003602809137029091380242E00E94CF047B
:1012000086E391E00E947E046091E2017091E30127
:101210008091590290915A02681B790B7093E301F7
:101220006093E20186EE91E00E94CE030E94D70215
:101230004B015C0184E6C82ED12CE12CF12C0E94DC
:10124000D702681979098A099B09683E73408105AC
:101250009105A8F321E0C21AD108E108F10888EE4F
:10126000880E83E0981EA11CB11CC114D104E104B6
:10127000F10429F7209709F491CF0E94F100882307
:1012800009F48CCF0E94000089CF10935002892B63
:1012900069F21092E1011092E0016091E201709117
:1012A000E30186EE91E00E94CE036091E40170912B
:1012B000E50189E192E00E94CE0386EE91E00E9472
:1012C000020489E192E00E940204B0CF5058BB278B
:1012D000AA270E947E090C94F10A0E94E30A38F0C2
:1012E0000E94EA0A20F039F49F3F19F426F40C9486
:1012F000E00A0EF4E095E7FB0C94DA0AE92F0E946D
:10130000020B58F3BA17620773078407950720F09A
:1013100079F4A6F50C94240B0EF4E0950B2EBA2F5D
:10132000A02D0B01B90190010C01CA01A0011124EB
:10133000FF27591B99F0593F50F4503E68F11A1697
:10134000F040A22F232F342F4427585FF3CF469528
:1013500037952795A795F0405395C9F77EF41F164A
:10136000BA0B620B730B840BBAF09150A1F0FF0F14
:10137000BB1F661F771F881FC2F70EC0BA0F621F00
:10138000731F841F48F4879577956795B795F795F0
:101390009E3F08F0B0CF9395880F08F09927EE0F85
:1013A0009795879508950E94B60A08F481E00895FC
:1013B0000E94EC090C94F10A0E94EA0A58F00E947B
:1013C000E30A40F029F45F3F29F00C94DA0A511146
:1013D0000C94250B0C94E00A0E94020B68F39923ED
:1013E000B1F3552391F3951B550BBB27AA27621721
:1013F0007307840738F09F5F5F4F220F331F441F2E
:10140000AA1FA9F335D00E2E3AF0E0E832D0915061
:101410005040E695001CCAF72BD0FE2F29D0660F4E
:10142000771F881FBB1F261737074807AB07B0E891
:1014300009F0BB0B802DBF01FF2793585F4F3AF097
:101440009E3F510578F00C94DA0A0C94250B5F3F0F
:10145000E4F3983ED4F3869577956795B795F7951D
:101460009F5FC9F7880F911D9695879597F9089505
:10147000E1E0660F771F881FBB1F621773078407A1
:10148000BA0720F0621B730B840BBA0BEE1F88F7B0
:10149000E09508950E940A0B88F09F5798F0B92FA5
:1014A0009927B751B0F0E1F0660F771F881F991F99
:1014B0001AF0BA95C9F714C0B13091F00E94240B0C
:1014C000B1E008950C94240B672F782F8827B85F1C
:1014D00039F0B93FCCF3869577956795B395D9F7F1
:1014E0003EF490958095709561957F4F8F4F9F4FFB
:1014F0000895E89409C097FB3EF490958095709507
:1015000061957F4F8F4F9F4F9923A9F0F92F96E94F
:10151000BB279395F695879577956795B795F111C4
:10152000F8CFFAF4BB0F11F460FF1BC06F5F7F4F61
:101530008F4F9F4F16C0882311F096E911C0772373
:1015400021F09EE8872F762F05C0662371F096E87C
:10155000862F70E060E02AF09A95660F771F881F4B
:10156000DAF7880F9695879597F90895990F0008EF
:10157000550FAA0BE0E8FEEF16161706E807F90765
:10158000C0F012161306E407F50798F0621B730B00
:10159000840B950B39F40A2661F0232B242B252B81
:1015A00021F408950A2609F4A140A6958FEF811D24
:1015B000811D089597F99F6780E870E060E00895C5
:1015C0009FEF80EC089500240A941616170618065B
:1015D0000906089500240A94121613061406050637
:1015E0000895092E0394000C11F4882352F0BB0FC8
:1015F00040F4BF2B11F460FF04C06F5F7F4F8F4F2B
:101600009F4F089557FD9058440F551F59F05F3F65
:1016100071F04795880F97FB991F61F09F3F79F014
:1016200087950895121613061406551FF2CF469596
:10163000F1DF08C0161617061806991FF1CF869518
:101640007105610508940895E894BB2766277727FC
:10165000CB0197F908950E94B60A08F48FEF089518
:101660000E94430B0C94F10A0E94E30A38F00E9496
:10167000EA0A20F0952311F00C94DA0A0C94E00A9F
:1016800011240C94250B0E94020B70F3959FC1F35B
:10169000950F50E0551F629FF001729FBB27F00D20
:1016A000B11D639FAA27F00DB11DAA1F649F662775
:1016B000B00DA11D661F829F2227B00DA11D621FC4
:1016C000739FB00DA11D621F839FA00D611D221F7E
:1016D000749F3327A00D611D231F849F600D211D62
:1016E000822F762F6A2F11249F5750409AF0F1F0E5
:1016F00088234AF0EE0FFF1FBB1F661F771F881F4E
:1017000091505040A9F79E3F510580F00C94DA0AA1
:101710000C94250B5F3FE4F3983ED4F386957795C0
:101720006795B795F795E7959F5FC1F7FE2B880FF3
:10173000911D9695879597F908950E94B60A880B92
:10174000990B0895A1E21A2EAA1BBB1BFD010DC027
:10175000AA1FBB1FEE1FFF1FA217B307E407F50761
:1017600020F0A21BB30BE40BF50B661F771F881F3D
:10177000991F1A9469F760957095809590959B01D3
:10178000AC01BD01CF010895052E97FB1EF4009416
:101790000E94DB0B57FD07D00E94A20B07FC03D071
:1017A0004EF40C94DB0B50954095309521953F4FAE
:1017B0004F4F5F4F089590958095709561957F4F3D
:1017C0008F4F9F4F0895EE0FFF1F0590F491E02D6E
:0617D0000994F894FFCF1C
:1017D600FC02FC020000000027018700B40074012F
:1017E600E500C300D7000000000057043C041E04B7
:1017F6000000000075040204E3036E616E00696E6A
:0A18060066006F7666000D0A000010
:00000001FF
